:0400000009EF01F013
:100008005E82FACF18F0FBCF19F0E9CF1AF0EACFE9
:100018001BF0E1CF1CF0E2CF1DF0D9CF1EF0DACFF4
:100028001FF0F3CF20F0F4CF21F0F6CF22F0F7CF76
:1000380023F0F8CF24F0F5CF25F05EC026F05FC09E
:1000480027F060C028F061C029F0F0B6F0A0ABD06E
:10005800F090620E09EC09F02B6E2BA011D04F9096
:100068004FBC4F9C000E0001946F000E936F4FA27F
:1000780007D0480E09EC09F02A6E2AB04F844F9237
:100088002BA68AD02D68000E2E6E0F0E2E6401D07E
:1000980010D02E50500D8C0EF324D96E020EF42081
:1000A800DA6EDF50D8A403D02EC02DF002D02E2A4D
:1000B800ECD7100E2D606BD0040E036E730E1EEC81
:1000C80009F02D50500D8C0EF324D96E020EF42039
:1000D800DA6E030E046E000E036EE0EC08F0020FF9
:1000E800DF6E2D50500D8C0EF324D96E020EF420C5
:1000F800DA6E4F0EDF6040D04F8A010E2E6E1AD096
:100108002D50500D8C0E136E020E146EF3501326E4
:10011800F45014222E501324D96E000E1420DA6ED7
:10012800000E2E24036E046A030E0422E0EC08F08D
:10013800DF6E2E2A2E50136E146A2D50500D8C0E21
:10014800F324D96E020EF420DA6EDF50156E166AAB
:10015800020E1526000E16221350155C1650800A42
:10016800176E1450800A1758D8B0CAD7010E036EFC
:100178001B0E1EEC09F005D0010E036E1B0E1EECC3
:1001880009F0000E036E730E1EEC09F005D0010E87
:10019800036E1B0E1EEC09F02BA805D0800E036E13
:1001A800590E1EEC09F09EB09DA007D09E90502AD3
:1001B8005050D8A402D00001992B4BEC09F029C06B
:1001C80061F028C060F027C05FF026C05EF025C04F
:1001D800F5FF24C0F8FF23C0F7FF22C0F6FF21C0B7
:1001E800F4FF20C0F3FF1FC0DAFF1EC0D9FF1DC0F7
:1001F800E2FF1CC0E1FF1BC0EAFF1AC0E9FF19C0FB
:0E020800FBFF18C0FAFF5E92110070EF08F0C5
:100F000000C0030000A005000060090000E0100020
:100F100000E01F0000E03D0000E0790000E0F1008B
:100F200000E0E10100E0C10300E0810700E0010F03
:100F300000E0011E00443D1B000DB4150001000837
:100F400000400000020010008001000A006400E878
:100F5000031027010010000001001030313233343B
:100F60003536373839414243444546003031323313
:100F7000343536373839616263646566005258200B
:100F80004D657373616765733A2025336400545867
:100F9000204D657373616765733A202533640000E3
:100FA00000019551445CD8A004D04550435CD8B0B2
:100FB000120071B0FED700019551445CD8B01AD030
:100FC0004450010D820EF324D96E000EF420DA6E27
:100FD000DF50756E442A95514418D8A4120045502C
:100FE000D8A412007184010E0E6E2C0E0D6E2AEC28
:100FF00008F012004550435CD8B012004350010D78
:101000007B0EF324D96E010EF420DA6EDF50D8A4E3
:101010000AD04350010D7B0EF324D96E010EF4204B
:10102000DA6E200EDF6E4350010D7B0EF324D96E75
:10103000010EF420DA6EDF50756E432A45504318D6
:10104000D8A412007184010E0E6E2C0E0D6E2AECC7
:1010500008F01200000E0F6E000E106E000E116EE2
:10106000000E126E0DC001F00EC002F0036A046A99
:10107000A00E056E0F0E066E000E076E000E086EB7
:10108000B5EC08F001C00FF002C010F003C011F081
:1010900004C012F0560E0F26FF0E1022FF0E112272
:1010A000FF0E122212BE12001250111010100EE18B
:1010B000C40E0F5CD8A0120009D000F0D90E0F2684
:1010C000FF0E1022FF0E1122FF0E122212BE12007E
:1010D000125011101010F1E10F04D8A01200EDD73A
:1010E000D20EF66E120EF76E000EF86E00EEE9F0FC
:1010F00010EE09F00900F5CFEEFFE550E150FAE1FE
:10110000DB0EF66E120EF76E000EF86E0900F5CFCC
:101110005CF00900F5CF5DF002EE8CF015EE00F00A
:10112000EE6AE550E150FCE1E250FAE102EE00F037
:101130008C0EEE6AE806FDE101EE00F09C0EEE6A10
:10114000E806FDE100EE60F0890EEE6AE806FDE1DA
:1011500000EE2FF02D0EEE6AE806FDE15E905E9245
:10116000000EF86E00015EEF09F0000E096E000E31
:101170000A6E000E0B6E000E0C6E01A008D005501A
:10118000092606500A2207500B2208500C22D8903C
:101190000536063607360836D89004320332023256
:1011A00001320150021003100410D8A4E6D709C080
:1011B00001F00AC002F00BC003F00CC004F01200F2
:1011C000000EF0B6010E086EF0968A9603C005F088
:1011D00004C006F0D89006320532D89006320532A7
:1011E000D8900632053205507F0B800932EC09F0A9
:1011F0000338E846E00BE00B32EC09F064EC09F050
:10120000076E8A8608B002D0F09601D0F0860750AB
:101210001200036E000EF0B6010E056EF0968A966F
:10122000035032EC09F064EC09F0046E8A8605B0D4
:1012300002D0F09601D0F08604501200046E000E29
:10124000F0B6010E056EF0968A96045032EC09F065
:10125000035032EC09F08A8605B002D0F09601D036
:10126000F0861200026E9E96C9CF01F0C69E02C0A3
:10127000C9FFC6BEFBD79EA6FED79E961200949CC1
:1012800095847E96000E7D6E330EAB6E240EA86E96
:10129000900E9C6E1200A4AE1200A49ED0EC07F03B
:1012A000000E0E6E050E0D6E2AEC08F01200000105
:1012B000F26FA8A2FED7F2C0A9FF12003FEC09F01E
:1012C000630E57EC09F0FFD7000E32EC09F0C9505D
:0D12D0001200FF011122334455661104FF86
:08FFF800ACF5DDFFFFF9FFF19C
:00000001FF
